:020000040800F2
:10000000D8080020F55C0008E1070008E3070008B5
:10001000E7070008EB070008EF07000800000000F2
:10002000000000000000000000000000F3070008CE
:10003000F507000800000000F7070008F9070008AE
:100040000F5D00080F5D00080F5D00080F5D0008E0
:100050000F5D00080F5D00080F5D00080F5D0008D0
:100060000F5D00080F5D00080F5D00080F5D0008C0
:100070000F5D00080F5D00080F5D00080F5D0008B0
:100080000F5D00080F5D00080F5D00080F5D0008A0
:100090000F5D00080F5D00080F5D00080F5D000890
:1000A0000F5D00080F5D00080F5D00080F5D000880
:1000B0000F5D00080F5D00080F5D00080F5D000870
:1000C0000F5D00080F5D00080F5D00080F5D000860
:1000D0000F5D0008435C00081F5900080F5D000811
:1000E0000F5D00080F5D00080F5D00080F5D000840
:1000F0000F5D00080F5D00080F5D00080F5D000830
:100100000F5D00080F5D00080F5D00080F5D00081F
:100110000F5D00080F5D00080F5D00080F5D00080F
:100120000F5D00080F5D00080F5D00080F5D0008FF
:1001300000F002F800F04DF80AA090E8000C8244AC
:100140008344AAF10107DA4501D100F042F8AFF289
:10015000090EBAE80F0013F0010F18BFFB1A43F0A5
:10016000010318476C9D00008C9D0000103A24BFCD
:1001700078C878C1FAD8520724BF30C830C144BF0C
:1001800004680C607047000000230024002500264E
:10019000103A28BF78C1FBD8520728BF30C148BFEA
:1001A0000B607047662908F03882782906F0F286DD
:1001B000732907F05F82002070471FB507F070FABF
:1001C00004000020002107F085FFE0601FBD10B58E
:1001D00010BD07F07DFB1146FFF7EFFF00F008F8B8
:1001E00007F09BFB03B4FFF7F2FF03BC05F0CEFC66
:1001F0001CB50025002405F05FFC4FF4A06005F05D
:1002000099FD4FF4E13005F0D0FC4FF4165005F0A5
:1002100035FB05F036F905F0F3F9FE4AFE480168B2
:10022000FE48006805F003FA01F081FA002001F0B1
:100230004BFA4FF4FC60FA4908804FF47A7005F0ED
:1002400078FC02220021032005F00FFC4FF4967089
:1002500005F06FFC02220021032005F006FC4FF49C
:100260007A7005F066FC4FF47A7005F062FC4FF48A
:100270007A7005F05EFC4FF47A7005F05AFC4FF48A
:100280007A7005F056FCE7A018210B46D222CDE982
:1002900000100021084605F0ACF8E4A018210B4638
:1002A000C822CDE90010002005F0A3F8E1A0182134
:1002B0000B46C822CDE900103021002005F099F846
:1002C000DEA018210B46C822CDE9001048210020ED
:1002D00005F08FF8DBA018210B46C822CDE90010ED
:1002E0006021002005F085F8D8A018210B46C8220F
:1002F000CDE900107821002005F07BF8D5A0182169
:100300000B46C822CDE900109021002005F071F8BD
:10031000D2A018210B46C822CDE90010A821002048
:1003200005F067F8CFA018210B46C822CDE90010D0
:10033000C021002005F05DF8CCA018210B46C82292
:10034000CDE90010D821002005F053F8CAA01821EB
:100350000B46C822CDE900104FF48C71002005F047
:1003600048F832E2681CC5B2C649C74805F08BF9A7
:100370001E2D0DD14FF07E51204608F02BF804467B
:100380002246A5480168A548006805F050F90025F7
:10039000BEA1BF4806F0B2FE88B9BEA1BC48283055
:1003A00006F0ACFE58B9BA48783018210B46C8227E
:1003B000CDE900100021502005F01BF802E2B3A1A6
:1003C000B34806F09BFE40BBB4A1B148283006F00C
:1003D00095FE10BBB3A1AE48C83006F08FFE50B9F1
:1003E000AB48783018210B46C822CDE900103C20DC
:1003F00004F0FFFFE6E1ACA1A548C83006F07EFEA0
:100400000028DBD1A248783018210B46C822CDE95C
:100410000010A02004F0EDFFD4E19CA19C4806F060
:100420006DFEB8BBA1A19A48283006F067FE88BBD4
:10043000A0A19748C83006F061FE50B994487830C2
:1004400018210B46C822CDE9001030213C2004F0D1
:10045000D0FF99A18E48783006F050FE0028ADDA22
:1004600003220021104605F000FB4FF47A7005F0DE
:1004700060FB4FF47A7005F05CFB4FF47A7005F086
:1004800058FB4FF47A7005F054FB4FF47A7005F086
:1004900050FB97E1FFE77DA17D4806F02FFE88BB6A
:1004A00086A17B48283006F029FE58BB7848783072
:1004B00018210B46C822CDE9001048213C2004F049
:1004C00098FF80A17248783006F018FE002891D17C
:1004D00006220021032005F0C8FA4FF47A7005F0D7
:1004E00028FB4FF47A7005F024FB4FF47A7005F086
:1004F00020FB4FF47A7005F01CFB4FF47A7005F086
:1005000018FB5FE1FFE761A1614806F0F7FDE0BB82
:100510006EA15F48283006F0F1FDB0BB6DA15C48CC
:10052000C83006F0EBFD58B95948783018210B4611
:10053000C822CDE900106021282004F05AFF41E1D3
:1005400065A15348C83006F0D9FD58B950487830F5
:1005500018210B46C822CDE9001060218C2004F040
:1005600048FF2FE15DA14A48C83006F0C7FD0028CA
:100570008FD14748783018210B46C822CDE90010AA
:1005800078213C2004F035FF1CE1FFE73FA1404803
:1005900006F0B4FD88B952A13D48283006F0AEFD02
:1005A00058B93B48783018210B46C822CDE90010D5
:1005B00090213C2004F01DFF04E134A1344806F0F2
:1005C0009DFD28BB48A13248283006F097FDF8B9B8
:1005D0002F48783018210B46C822CDE90010A821F9
:1005E000502004F006FF42A12948783006F086FD2D
:1005F00000280ED104220021032005F036FA4FF422
:100600007A7005F096FA4FF47A7005F092FA73E07A
:1006100077E0D2E00000F642040000200000002055
:100620001C000020504D322E353A00005426483A26
:10063000200000004C75783A200000004348343A0E
:100640002000000042503A200000000042504D3A85
:10065000200000004B57683A200000005761746585
:10066000723A2000444F4F523A20000057696E649E
:100670006F77733A2000000032303138202F362F48
:100680003300000048000020AE01002073617900B3
:1006900082000020443537333100000044353736BE
:1006A0003300000054000000480000004435373695
:1006B000340000004C000000313000004435383573
:1006C000300000005761726E696E6700443538353E
:1006D000310000004758590044585900584C000058
:1006E00044353838330000004435383939000000CB
:1006F000574152494E4700004FF47A7005F019FAFD
:1007000060E0AFF27801314806F0F8FC48BB30A158
:100710002E48283006F0F2FC18BB2C4878301821FF
:100720000B46C822CDE90010C021502004F061FE24
:10073000AFF244012548783006F0E0FCE8BB052222
:100740000021032005F091F94FF47A7005F0F1F9DA
:100750004FF47A7005F0EDF94FF47A7005F0E9F98D
:1007600030E0AFF2D801194806F0C8FC28BB1AA146
:100770001648283006F0C2FCF8B914487830182121
:100780000B46C822CDE90010D8215F2004F031FECD
:10079000AFF2A4010D48783006F0B0FC68B9012230
:1007A0000021032005F061F94FF47A7005F0C1F9DA
:1007B0004FF47A7005F0BDF900E003E04FF47A7071
:1007C00005F0B7F9642005F0B4F9CBE5820000200C
:1007D00044353930340000004435393035000000EC
:1007E000704700BFFEE700BFFEE700BFFEE700BFA7
:1007F000FEE7704770477047704700000CB5002057
:10080000019000906C48006840F480306A490860AC
:1008100000BF6948006800F4003000900198401C57
:100820000190009818B90198B0F5A06FF1D1624815
:10083000006800F4003010B10120009001E00020B9
:1008400000900098012843D15C48006840F01000F7
:100850005A4908600846006820F00300086008460E
:10086000006840F002000860534840685249486000
:100870000846406848600846406840F48060486028
:100880000846406820F47C1048600846406840F400
:10089000E81048600846006840F08070086000BFBB
:1008A0004548006800F000700028F9D042484068D0
:1008B00020F00300404948600846406840F00200CC
:1008C000486000BF3C48406800F00C000828F9D19F
:1008D0000CBD10B5FFF792FF10BD10B5364800688B
:1008E00040F0010034490860084640683449084037
:1008F0003149486008460068324908402E4908607E
:100900000846006820F4802008600846406820F40B
:10091000FE0048604FF41F008860FFF7DAFF4FF0D9
:1009200000602949086010BD10B500210020002298
:10093000214B5B6803F00C0121B1042906D0082982
:1009400028D107E0214B224C236027E01F4B204C8D
:10095000236023E0184B5B6803F47010164B5B6850
:1009600003F48032022303EB904022B9194B434336
:10097000174C23600DE0104B5B6803F4003323B188
:10098000144B4343124C236003E0104B4343104C81
:10099000236003E00D4B0E4C236000BF00BF064BED
:1009A0005B68C3F303130C4CE15C094B1B68CB4041
:1009B000074C236010BD00000010024000200240E0
:1009C0000000FFF8FFFFF6FE08ED00E000127A00DD
:1009D0000800002000093D000C0000204FF0D84125
:1009E000088070474FF0D8414880704708B54FF0F5
:1009F000D84040880090BDF8000008BD4FF0D842B4
:100A000010805180704710B504462046FFF7E6FF7E
:100A1000052005F06AF8FFF7E9FF10BDFC480089E2
:100A20004FF0D841088070474FF0D8414880704758
:100A300030B5014601F01F04C1F34513CA0AE502AF
:100A400005EB43151544A8B230BD00BF0100A0F16D
:100A50000102D0B2FAD1704710B503460C46EC48FB
:100A6000808849F24131884205D0E948808845F2C2
:100A70001031884214D1E6494889FFF7AFFF1812B8
:100A8000FFF7B0FFD8B2FFF7ADFFE1498889FFF764
:100A9000A5FF2012FFF7A6FFE0B2FFF7A3FFABE030
:100AA000DB48808846F6040188421DD1D848807909
:100AB000012804D1D6480088401EC01A83B2D44908
:100AC0004889FFF78BFF1812FFF78CFFD8B2FFF7AA
:100AD00089FFCF498889FFF781FF2012FFF782FF46
:100AE000E0B2FFF77FFF87E0C948808841F66311D5
:100AF000884247D1C6488079A8B9C5480088401EB9
:100B0000C01A83B2C2494889FFF768FF0020FFF787
:100B100069FF0020FFF766FF1812FFF763FFD8B2E6
:100B2000FFF760FF16E0BA494889FFF757FF181230
:100B3000FFF758FFD8B2FFF755FFB5490988491E9E
:100B4000C1F30F20FFF74EFFB1490978491EC8B223
:100B5000FFF748FFAE498889FFF740FF2012FFF7F3
:100B600041FFE0B2FFF73EFFA9494988491EC1F3A2
:100B70000F20FFF737FFA6498978491EC8B2FFF753
:100B800031FF39E0A248808845F21051884220D1D7
:100B90009F494889FFF722FF1812FFF723FF9C495E
:100BA0004989491C88B2FFF719FFD8B2FFF71AFF2D
:100BB00097498889FFF712FF2012FFF713FF944926
:100BC0008989491C88B2FFF709FFE0B2FFF70AFFE5
:100BD00012E08F488079012804D18D480088401E9A
:100BE000C01A83B28A4948891946FFF707FF884926
:100BF00088892146FFF702FF10BD2DE9F041054627
:100C00000E4600240027A04681480088A84203DD44
:100C10007F484088B04202DC0020BDE8F0813146C8
:100C20002846FFF719FF7A48808849F24131884207
:100C300011D07748808846F6040188420BD074486A
:100C4000808845F21031884205D07148808841F68D
:100C50006311884203D12E20FFF7C0FE0DE06C48DF
:100C6000808845F21051884204D14FF43850FFF784
:100C7000B5FE02E02220FFF7B1FE6548808849F208
:100C80002031884202D10220FFF7DFFEFFF7AEFEDF
:100C900004465F48808841F66311884201D12046AE
:100CA000BBE70220FFF7D1FEFFF7A0FE044658483D
:100CB000808849F2413188420BD05548808845F2FE
:100CC0001031884205D05248808845F21051884240
:100CD0000AD10220FFF7B9FEFFF788FE8046E7B28F
:100CE0004FF6FF7000EA07274948808849F225310E
:100CF000884216D04648808844F23551884210D048
:100D000043488088091F88420BD0414880884BF2B5
:100D10000551884205D03E4880884CF205518842F2
:100D200001D1204679E73A48808849F2413188422A
:100D30000BD03748808845F21031884205D03448BE
:100D4000808845F21051884207D1E012C002B912E2
:100D500040EA411040EAE8205FE72046FFF768FEDE
:100D60005BE700B52A48808849F24131884211D0BA
:100D70002748808846F6040188420BD024488088A2
:100D800045F21031884205D02148808841F6631130
:100D9000884203D12920FFF721FE0FE01C488088FC
:100DA00045F21051884204D14FF42450FFF716FE4B
:100DB00004E040F273110720FFF720FE00BD00B5EC
:100DC0001348808849F24131884211D01048808808
:100DD00046F6040188420BD00D48808845F2103158
:100DE000884205D00A48808841F66311884203D1C1
:100DF0002820FFF7F3FD11E00548808845F21051E7
:100E0000884207D14FF42050FFF7E8FD06E00000CC
:100E10006000002000210720FFF7F0FD00BD70B545
:100E2000044600230026FD48807901280BD1FB48A9
:100E3000808846F60401884205D0F848808841F64B
:100E40006311884208D1F5488079F0B9F348808869
:100E500041F66311884218D1082C15D2DFE804F05E
:100E60000406080A0C0E101206240DE007240BE0FD
:100E7000042409E0052407E0012405E0002403E040
:100E8000032401E0022400BF00BFE448808849F247
:100E90004131884217D0E148808846F604018842F3
:100EA00011D0DE48808845F2103188420BD0DB48F3
:100EB000808845F21051884205D0D848808841F694
:100EC000631188427ED1082C1CD2DFE804F00406AE
:100ED000090C0F12151800BF14E043F0800311E055
:100EE00043F040030EE043F0C0030BE043F0200367
:100EF00008E043F0600305E043F0A00302E043F0A4
:100F0000E00300BF00BFC548808845F21051884209
:100F100002D14FF4585600E03626C048808845F28A
:100F2000103188420DD0BD48808845F2105188426A
:100F300007D0BA48808841F66311884201D043F057
:100F40000803B648808846F60401884201D143F080
:100F5000020319463046FFF751FDB048808841F63C
:100F6000631188421DD003F0200068B1AB480088AF
:100F7000AA494988884214DAA84805884088A749C0
:100F80000880084645800CE0A4480088A3494988A9
:100F9000884206DDA14805884088A04908800846A7
:100FA00045809E48808845F21051884254D19B4923
:100FB0004889FFF713FD0020FFF714FD9749498981
:100FC000491C00E077E088B2FFF708FD0020FFF73A
:100FD00009FD92494989891C88B2FFF7FFFC8F49B6
:100FE0000988491EC1F30F20FFF7FCFC8B49498992
:100FF000C91C88B2FFF7F2FC88490978491EC8B2BB
:10100000FFF7F0FC85498889FFF7E8FC0020FFF72F
:10101000E9FC82498989491C88B2FFF7DFFC00207E
:10102000FFF7E0FC7D498989891C88B2FFF7D6FC6F
:101030007A494988491EC1F30F20FFF7D3FC77494D
:101040008989C91C88B2FFF7C9FC74498978491E8F
:10105000C8B2FFF7C7FC55E070494889FFF7BEFCEE
:101060000020FFF7BFFC0020FFF7BCFC6B4909889C
:10107000491EC1F30F20FFF7B5FC68490978491EE6
:10108000C8B2FFF7AFFC65498889FFF7A7FC0020CD
:10109000FFF7A8FC0020FFF7A5FC60494988491E1E
:1010A000C1F30F20FFF79EFC5C498978491EC8B246
:1010B000FFF798FC26E0082C1CD2DFE804F00407B8
:1010C0000A0D0F12151843F0300313E043F010031C
:1010D00010E043F020030DE000BF0BE043F03803C5
:1010E00008E043F0280305E043F0180302E043F072
:1010F000080300BF00BF032643F48053194630465F
:10110000FFF77CFC70BD30B504460D4629462046ED
:10111000FFF7A2FCFFF782FC414800884FF0D8415E
:10112000488030BD30B503460C4615463B488088A4
:1011300049F24131884205D03848808845F2103163
:10114000884214D135494889FFF748FC1812FFF747
:1011500049FCD8B2FFF746FC30498889FFF73EFCCE
:101160002012FFF73FFCE0B2FFF73CFC91E02B4878
:10117000808845F21051884220D128494889FFF7DC
:101180002DFC1812FFF72EFC24494989491C88B20E
:10119000FFF724FCD8B2FFF725FC20498889FFF728
:1011A0001DFC2012FFF71EFC1C498989491C88B2CE
:1011B000FFF714FCE0B2FFF715FC6AE017488088DF
:1011C00041F6631188422DD11448807920B9134823
:1011D0000088401EC01A83B210494889FFF7FEFB01
:1011E0001812FFF7FFFBD8B2FFF7FCFB1812FFF74E
:1011F000F9FBD8B2FFF7F6FB08498889FFF7EEFB49
:101200002012FFF7EFFBE0B2FFF7ECFB2012FFF735
:10121000E9FBE0B2FFF7E6FB3BE0000060000020E6
:101220001C000020FE48808846F6040188421DD13B
:10123000FB488079012804D1F9480088401EC01A73
:1012400083B2F7494889FFF7C9FB1812FFF7CAFBB9
:10125000D8B2FFF7C7FBF2498889FFF7BFFB20121E
:10126000FFF7C0FBE0B2FFF7BDFB12E0EC4880796E
:10127000012804D1EA480088401EC01A83B2E84918
:1012800048891946FFF7BAFBE54988892146FFF7E7
:10129000B5FBE34800894FF0D841088008464580F7
:1012A00030BD2DE9F0470446BE20FFF797FB05202F
:1012B000FFF798FB204606F050FF07464FF06632D6
:1012C000D84B06F05DFF054606F01AFF1FFA80F9BD
:1012D0004846FFF787FB0120FFF784FBFF20FFF75D
:1012E00081FB0020FFF77EFB0020FFF77BFBBDE8C2
:1012F000F08710B50446002C66D1C9498871F020EA
:1013000008804FF4A07048800846808849F2413137
:1013100088420BD0C248808846F60401884205D036
:10132000BF48808845F2103188421AD12C20BC4930
:1013300008812A2048812B2088810846808846F62B
:101340000401884205D0B648808845F210318842B1
:1013500006D14FF4A070B24908804FF4F070488075
:10136000A1E0AF48808845F21051884210D14FF477
:101370003050AB4908814FF4285048814FF42C502D
:1013800088814FF4F07008804FF4487048808AE0FC
:10139000A348808841F6631188420DD12C20A049D2
:1013A00008812B2048812A2088814FF4F070088022
:1013B0004FF44870488076E0222099490881202027
:1013C0004881212088816EE00120954988714FF481
:1013D000A0700880F02048800846808849F241319A
:1013E000884205D08E48808845F21031884207D166
:1013F0002C208B4908812A2048812B2088813FE0BE
:101400008748808846F60401884207D12C20844909
:1014100008812B2048812A20888131E080488088FB
:1014200045F21051884210D14FF430507C49088168
:101430004FF4285048814FF42C5088814FF4487065
:1014400008804FF4F07048801AE07548808841F6B3
:10145000631188420DD12C20714908812A204881CE
:101460002B2088814FF4487008804FF4F07048803A
:1014700006E022206A4908812120488120208881B5
:101480006748808846F60401884205D06448808811
:1014900045F21031884206D14FF4F070604908805F
:1014A0004FF4A07048800320FFF7B9FC10BD2DE970
:1014B000F04F86B004460D469046994604EB08006E
:1014C000401E86B205EB0900401E87B25448808852
:1014D00049F24131884215D05148808845F2103197
:1014E00088420FD04E48808846F60401884209D0D1
:1014F0004B488079012826D14948808841F66311FC
:10150000884220D146494889FFF768FA2012FFF740
:1015100069FAE0B2FFF766FA3012FFF763FAF0B249
:10152000FFF760FA3E498889FFF758FA2812FFF75B
:1015300059FAE8B2FFF756FA3812FFF753FAF8B241
:10154000FFF750FABDE03648808841F663118842C3
:1015500034D133480088A0EB0800001B84B205EBAF
:101560000900401E1FFA80F92D494889FFF736FA15
:101570002012FFF737FAE0B2FFF734FA04EB080164
:10158000491EC1F30F20FFF72DFA04EB0801491E95
:10159000C8B2FFF727FA22498889FFF71FFA2812F5
:1015A000FFF720FAE8B2FFF71DFA4FEA2920FFF70C
:1015B00019FA09F0FF00FFF715FA82E01848808851
:1015C00045F21051884249D115494889FFF706FA7A
:1015D0002012FFF707FA12494989491C88B2FFF720
:1015E000FDF9E0B2FFF7FEF90D494989891C88B27F
:1015F000FFF7F4F93012FFF7F5F909494989C91CD9
:1016000088B2FFF7EBF9F0B2FFF7ECF904498889EB
:10161000FFF7E4F92812FFF7E5F90149898903E0AA
:101620006000002066660440491C88B2FFF7D6F9C6
:10163000E8B2FFF7D7F9FE498989891C88B2FFF71C
:10164000CDF93812FFF7CEF9F9498989C91C88B25A
:10165000FFF7C4F9F8B2FFF7C5F932E0F448807932
:1016600001280ED1AA46BB46F1480088801B401EC7
:1016700080B20190EE480088001B401E80B20090AE
:1016800003E0A246B34601950097502005905120F3
:101690000490522003905320029051460598FFF782
:1016A000ADF959460498FFF7A9F901990398FFF796
:1016B000A5F900990298FFF7A1F929462046FFF7FE
:1016C000CBF906B0BDE8F08F70B504460026D848C7
:1016D000058840884543D648808846F604018842FC
:1016E00016D1D3488079012812D10020D0498871C1
:1016F0002A2048812B20888100210846FFF7ACF979
:101700000120CB4988712B2048812A20888103E061
:1017100000210846FFF7A0F9FFF780F9002603E053
:101720004FF0D8404480761CAE42F9D370BD00B56E
:101730009FB00121080205F080F901214FF4FC70EF
:1017400005F088F92020ADF8780010208DF87B0096
:1017500003208DF87A001EA9B64804F0BFFE0120D0
:10176000ADF8780010208DF87B0003208DF87A000A
:101770001EA9B14804F0B2FE4CF23370ADF8780007
:1017800018208DF87B0003208DF87A001EA9AB4845
:1017900004F0A4FE4FF68070ADF8780018208DF8A4
:1017A0007B0003208DF87A001EA9A54804F096FE60
:1017B0004FF48050ADF8780018208DF87B0003209E
:1017C0008DF87A001EA99F4804F088FE0120ADF82C
:1017D000780018208DF87B0003208DF87A001EA970
:1017E000994804F07BFE2021924804F024FF012058
:1017F0000890002009900F200A9000200B900C9078
:101800000D900E9001900290032003900020049010
:1018100005900690079006200F90002010901190E0
:10182000102012900020139015901490169017908D
:101830004FF480501890002019904FF480401A9077
:1018400000201B9008A81C9001A81D900FA804F070
:101850002BFB0121062004F08FFC322004F069F9F3
:101860000020FFF7D0F87249888008468088FF285A
:101870000ADB084680884FF6FF71884204D06C4826
:101880008088B0F5134F7CD1D320FFF7A7F8FFF77E
:10189000ADF867498880FFF7A9F865498880FFF7A8
:1018A000A5F863498880084680884FF6FF7101EAF1
:1018B00000205F498880FFF799F85D4989880843CF
:1018C0005B4988800846808849F24131884258D077
:1018D000BF20FFF783F8FFF789F855498880FFF7A5
:1018E00085F853498880FFF781F851498880FFF7D0
:1018F0007DF84F498880084680884FF6FF7101EADD
:1019000000204B498880FFF771F8494989880843CE
:10191000474988800846808846F6040188427AD084
:10192000D420FFF75BF8FFF761F841498880FFF7A3
:101930005DF83F498880FFF759F83D49888008469F
:1019400080884FF6FF7101EA002039498880FFF74F
:101950004DF837498988084335498880084680888A
:1019600045F21031884256D04FF45A40FFF736F80E
:10197000FFF73CF82E4988804FF45B40FFF72EF8C4
:1019800000E048E0FFF732F829498880084680885F
:101990004FF6FF7101EA0020254988804FF45C4032
:1019A000FFF71CF8FFF722F82149898808432049EE
:1019B000888008468088B0F5004F02D145F210506B
:1019C00088801B48808845F21051884223D0A1208E
:1019D000FFF704F8FFF70AF815498880FFF706F8C3
:1019E00013498880084680884FF6FF7101EA00207D
:1019F0000F498880FEF7FAFF0D49898808430C4992
:101A000088800846808845F26171884203D141F69A
:101A1000631007498880064881880CA005F084FA85
:101A20000348808849F2413188427DD1CF2015E0BA
:101A30006000002000100140000C01400014014033
:101A40000018014000200140001C0140204C43448C
:101A50002049443A25780D0A00000000FEF7BEFF39
:101A60000020FEF7BFFFC120FEF7BCFF3020FEF7CD
:101A7000B9FFED20FEF7B2FF6420FEF7B3FF0320AD
:101A8000FEF7B0FF1220FEF7ADFF8120FEF7AAFFA0
:101A9000E820FEF7A3FF8520FEF7A4FF1020FEF745
:101AA000A1FF7A20FEF79EFFCB20FEF797FF39209B
:101AB000FEF798FF2C20FEF795FF0020FEF792FF1F
:101AC0003420FEF78FFF0220FEF78CFFF720FEF791
:101AD00085FF2020FEF786FFEA20FEF77FFF00202B
:101AE000FEF780FF0020FEF77DFFC020FEF776FFA7
:101AF0001B20FEF777FFC120FEF770FF0120FEF7E5
:101B000071FFC520FEF76AFF3020FEF76BFF302023
:101B1000FEF768FFC720FEF761FFB720FEF762FF00
:101B20003620FEF75BFF00E0AFE04820FEF75AFFEB
:101B30003A20FEF753FF5520FEF754FFB120FEF781
:101B40004DFF0020FEF74EFF1A20FEF74BFFB62098
:101B5000FEF744FF0A20FEF745FFA220FEF742FFF2
:101B6000F220FEF73BFF0020FEF73CFF2620FEF7A9
:101B700035FF0120FEF736FFE020FEF72FFF0F2094
:101B8000FEF730FF2A20FEF72DFF2820FEF72AFF60
:101B90000820FEF727FF0E20FEF724FF0820FEF79F
:101BA00021FF5420FEF71EFFA920FEF71BFF432054
:101BB000FEF718FF0A20FEF715FF0F20FEF712FFB1
:101BC0000020FEF70FFF0020FEF70CFF0020FEF7BD
:101BD00009FF0020FEF706FFE120FEF7FFFE0020D0
:101BE000FEF700FF1520FEF7FDFE1720FEF7FAFEB8
:101BF0000720FEF7F7FE1120FEF7F4FE0620FEF7A1
:101C0000F1FE2B20FEF7EEFE5620FEF7EBFE3C2009
:101C1000FEF7E8FE0520FEF7E5FE1020FEF7E2FEE7
:101C20000F20FEF7DFFE3F20FEF7DCFE3F20FEF731
:101C3000D9FE0F20FEF7D6FE2B20FEF7CFFE0020A8
:101C4000FEF7D0FE0020FEF7CDFE0120FEF7CAFE13
:101C50003F20FEF7C7FE2A20FEF7C0FE0020FEF759
:101C6000C1FE0020FEF7BEFE0020FEF7BBFEEF2007
:101C7000FEF7B8FE1120FEF7B1FE782003F059FF01
:101C80002920FEF7ABFE03F01DB9FE48808846F61A
:101C9000040188427ED11120FEF7A0FE142003F03B
:101CA00048FFD020FEF79AFE0720FEF79BFE422059
:101CB000FEF798FE1D20FEF795FED120FEF78EFE62
:101CC0000020FEF78FFE1A20FEF78CFE0920FEF79B
:101CD00089FED220FEF782FE0120FEF783FE22203D
:101CE000FEF780FEC020FEF779FE1020FEF77AFE98
:101CF0003B20FEF777FE0020FEF774FE0220FEF781
:101D000071FE1120FEF76EFEC520FEF767FE032070
:101D1000FEF768FEC820FEF761FE0020FEF762FEB7
:101D20002520FEF75FFE2120FEF75CFE0520FEF772
:101D300059FE0020FEF756FE0A20FEF753FE6520EE
:101D4000FEF750FE2520FEF74DFE7720FEF74AFEF7
:101D50005020FEF747FE0F20FEF744FE0020FEF75E
:101D600041FEF820FEF73AFE0120FEF73BFEFE2082
:101D7000FEF734FE0020FEF735FE0220FEF732FEAD
:101D80002020FEF72BFE3620FEF728FE0820FEF767
:101D900029FE00E02AE03A20FEF720FE5520FEF75B
:101DA00021FE2B20FEF71AFE0020FEF71BFE00206E
:101DB000FEF718FE0120FEF715FE3F20FEF712FE8B
:101DC0002A20FEF70BFE0020FEF70CFE0020FEF797
:101DD00009FE0120FEF706FEDF20FEF703FE782055
:101DE00003F0A7FE2920FEF7F9FD4CE7A5488088FF
:101DF00045F21031884240F07C87ED20FEF7EEFD81
:101E00000120FEF7EFFDFE20FEF7ECFDEE20FEF7D1
:101E1000E5FDDE20FEF7E6FD2120FEF7E3FDF120E3
:101E2000FEF7DCFD0120FEF7DDFDDF20FEF7D6FD2D
:101E30001020FEF7D7FDC420FEF7D0FD8F20FEF75F
:101E4000D1FDC620FEF7CAFD0020FEF7CBFDE22043
:101E5000FEF7C8FDE220FEF7C5FDE220FEF7C2FD59
:101E6000BF20FEF7BBFDAA20FEF7BCFDB020FEF7A9
:101E7000B5FD0D20FEF7B6FD0020FEF7B3FD0D20E9
:101E8000FEF7B0FD0020FEF7ADFD1120FEF7AAFD24
:101E90000020FEF7A7FD1920FEF7A4FD0020FEF7A5
:101EA000A1FD2120FEF79EFD0020FEF79BFD2D20C9
:101EB000FEF798FD0020FEF795FD3D20FEF792FD10
:101EC0000020FEF78FFD5D20FEF78CFD0020FEF761
:101ED00089FD5D20FEF786FD0020FEF783FDB12021
:101EE000FEF77CFD8020FEF77DFD0020FEF77AFDE9
:101EF0008B20FEF777FD0020FEF774FD9620FEF79D
:101F000071FD0020FEF76EFDB220FEF767FD002098
:101F1000FEF768FD0020FEF765FD0220FEF762FD7A
:101F20000020FEF75FFD0320FEF75CFD0020FEF7BA
:101F300059FDB320FEF752FD0020FEF753FD0020AF
:101F4000FEF750FD0020FEF74DFD0020FEF74AFD94
:101F50000020FEF747FD0020FEF744FD0020FEF7BD
:101F600041FD0020FEF73EFD0020FEF73BFD002076
:101F7000FEF738FD0020FEF735FD0020FEF732FDAC
:101F80000020FEF72FFD0020FEF72CFD0020FEF7BD
:101F900029FD0020FEF726FD0020FEF723FD00208E
:101FA000FEF720FD0020FEF71DFD0020FEF71AFDC4
:101FB0000020FEF717FD0020FEF714FD0020FEF7BD
:101FC00011FD0020FEF70EFDB420FEF707FD8B206B
:101FD000FEF708FD0020FEF705FD9620FEF702FD46
:101FE0000020FEF7FFFCA120FEF7FCFC0020FEF71E
:101FF000F9FCB520FEF7F2FC0220FEF7F3FC00200E
:10200000FEF7F0FC0320FEF7EDFC0020FEF7EAFCF3
:102010000420FEF7E7FC0020FEF7E4FCB620FEF704
:10202000DDFC0020FEF7DEFC0020FEF7DBFCB72025
:10203000FEF7D4FC0020FEF7D5FC0020FEF7D2FC12
:102040003F20FEF7CFFC0020FEF7CCFC5E20FEF721
:10205000C9FC0020FEF7C6FC6420FEF7C3FC00208C
:10206000FEF7C0FC8C20FEF7BDFC0020FEF7BAFC9A
:10207000AC20FEF7B7FC0020FEF7B4FCDC20FEF736
:10208000B1FC01E0600000200020FEF7ABFC7020F6
:10209000FEF7A8FC0020FEF7A5FC9020FEF7A2FCAE
:1020A0000020FEF79FFCEB20FEF79CFC0020FEF7D3
:1020B00099FCDC20FEF796FC0020FEF793FCB8208C
:1020C000FEF78CFC0020FEF78DFC0020FEF78AFC5A
:1020D0000020FEF787FC0020FEF784FC0020FEF7BE
:1020E00081FC0020FEF77EFC0020FEF77BFC002038
:1020F000FEF778FCBA20FEF771FC2420FEF772FC94
:102100000020FEF76FFC0020FEF76CFC0020FEF7BD
:1021100069FCC120FEF762FC2020FEF763FC002072
:10212000FEF760FC5420FEF75DFC0020FEF75AFC31
:10213000FF20FEF757FC0020FEF754FCC220FEF7FC
:102140004DFC0A20FEF74EFC0020FEF74BFC04205D
:10215000FEF748FC0020FEF745FCC320FEF73EFCDE
:102160003C20FEF73FFC0020FEF73CFC3A20FEF747
:1021700039FC0020FEF736FC3920FEF733FC002046
:10218000FEF730FC3720FEF72DFC0020FEF72AFC7E
:102190003C20FEF727FC0020FEF724FC3620FEF74B
:1021A00021FC0020FEF71EFC3220FEF71BFC002065
:1021B000FEF718FC2F20FEF715FC0020FEF712FC9E
:1021C0002C20FEF70FFC0020FEF70CFC2920FEF768
:1021D00009FC0020FEF706FC2620FEF703FC002089
:1021E000FEF700FC2420FEF7FDFB0020FEF7FAFBC3
:1021F0002420FEF7F7FB0020FEF7F4FB2320FEF778
:10220000F1FB0020FEF7EEFB3C20FEF7EBFB00208D
:10221000FEF7E8FB3620FEF7E5FB0020FEF7E2FBC9
:102220003220FEF7DFFB0020FEF7DCFB2F20FEF75D
:10223000D9FB0020FEF7D6FB2C20FEF7D3FB0020B5
:10224000FEF7D0FB2920FEF7CDFB0020FEF7CAFBEE
:102250002620FEF7C7FB0020FEF7C4FB2420FEF774
:10226000C1FB0020FEF7BEFB2420FEF7BBFB0020D5
:10227000FEF7B8FB2320FEF7B5FB0020FEF7B2FB0C
:10228000C420FEF7ABFB6220FEF7ACFB0020FEF79C
:10229000A9FB0520FEF7A6FB0020FEF7A3FB842088
:1022A000FEF7A0FB0020FEF79DFBF020FEF79AFB57
:1022B0000020FEF797FB1820FEF794FB0020FEF7A6
:1022C00091FBA420FEF78EFB0020FEF78BFB18206D
:1022D000FEF788FB0020FEF785FB5020FEF782FB0F
:1022E0000020FEF77FFB0C20FEF77CFB0020FEF7B2
:1022F00079FB1720FEF776FB0020FEF773FB952095
:10230000FEF770FB0020FEF76DFBF320FEF76AFB83
:102310000020FEF767FBE620FEF764FB0020FEF7D7
:1023200061FBC520FEF75AFB3220FEF75BFB002065
:10233000FEF758FB4420FEF755FB0020FEF752FB4A
:102340006520FEF74FFB0020FEF74CFB7620FEF7E2
:1023500049FB0020FEF746FB8820FEF743FB0020E8
:10236000FEF740FBC620FEF739FB2020FEF73AFBC4
:102370000020FEF737FB1720FEF734FB0020FEF7A6
:1023800031FB0120FEF72EFB0020FEF72BFBC720C0
:10239000FEF724FB0020FEF725FB0020FEF722FBC2
:1023A0000020FEF71FFB0020FEF71CFBC820FEF7F5
:1023B00015FB0020FEF716FB0020FEF713FB0020A4
:1023C000FEF710FB0020FEF70DFBC920FEF706FB11
:1023D0000020FEF707FB0020FEF704FB0020FEF7BD
:1023E00001FB0020FEF7FEFA0020FEF7FBFA0020BA
:1023F000FEF7F8FA0020FEF7F5FA0020FEF7F2FAF1
:102400000020FEF7EFFA0020FEF7ECFA0020FEF7BE
:10241000E9FA0020FEF7E6FA0020FEF7E3FA0020D2
:10242000FEF7E0FA0020FEF7DDFA0020FEF7DAFA08
:10243000E020FEF7D3FA1620FEF7D4FA0020FEF7CC
:10244000D1FA1C20FEF7CEFA0020FEF7CBFA2120AD
:10245000FEF7C8FA0020FEF7C5FA3620FEF7C2FAEA
:102460000020FEF7BFFA4620FEF7BCFA0020FEF778
:10247000B9FA5220FEF7B6FA0020FEF7B3FA64204C
:10248000FEF7B0FA0020FEF7ADFA7A20FEF7AAFABE
:102490000020FEF7A7FA8B20FEF7A4FA0020FEF733
:1024A000A1FA9920FEF79EFA0020FEF79BFAA820D9
:1024B000FEF798FA0020FEF795FAB920FEF792FA97
:1024C0000020FEF78FFAC420FEF78CFA0020FEF7FA
:1024D00089FACA20FEF786FA0020FEF783FAD22096
:1024E000FEF780FA0020FEF77DFAD920FEF77AFA8F
:1024F0000020FEF777FAE020FEF774FA0020FEF7DE
:1025000071FAF320FEF76EFA0020FEF76BFAE12075
:10251000FEF764FA1620FEF765FA0020FEF762FA6D
:102520001C20FEF75FFA0020FEF75CFA2220FEF77F
:1025300059FA0020FEF756FA3620FEF753FA00202B
:10254000FEF750FA4520FEF74DFA0020FEF74AFA52
:102550005220FEF747FA0020FEF744FA6420FEF707
:1025600041FA0020FEF73EFA7A20FEF73BFA0020FF
:10257000FEF738FA8B20FEF735FA0020FEF732FA24
:102580009920FEF72FFA0020FEF72CFAA820FEF77C
:1025900029FA0020FEF726FAB920FEF723FA0020D8
:1025A000FEF720FAC420FEF71DFA0020FEF71AFA03
:1025B000CA20FEF717FA0020FEF714FAD220FEF721
:1025C00011FA0020FEF70EFAD820FEF70BFA0020D1
:1025D000FEF708FAE020FEF705FA0020FEF702FAFF
:1025E000F320FEF7FFF90020FEF7FCF9E220FEF7EA
:1025F000F5F90520FEF7F6F90020FEF7F3F90B20B8
:10260000FEF7F0F90020FEF7EDF91B20FEF7EAF9DE
:102610000020FEF7E7F93420FEF7E4F90020FEF78A
:10262000E1F94420FEF7DEF90020FEF7DBF94F2048
:10263000FEF7D8F90020FEF7D5F96120FEF7D2F9B0
:102640000020FEF7CFF97920FEF7CCF90020FEF745
:10265000C9F98820FEF7C6F90020FEF7C3F99720D4
:10266000FEF7C0F90020FEF7BDF9A620FEF7BAF983
:102670000020FEF7B7F9B720FEF7B4F90020FEF707
:10268000B1F9C220FEF7AEF90020FEF7ABF9C72082
:10269000FEF7A8F90020FEF7A5F9D120FEF7A2F970
:1026A0000020FEF79FF9D620FEF79CF90020FEF7E8
:1026B00099F9DD20FEF796F90020FEF793F9F32053
:1026C000FEF790F90020FEF78DF9E320FEF786F97A
:1026D0000520FEF787F90020FEF784F90A20FEF7AF
:1026E00081F90020FEF77EF91C20FEF77BF900201F
:1026F000FEF778F93320FEF775F90020FEF772F93E
:102700004420FEF76FF90020FEF76CF95020FEF729
:1027100069F90020FEF766F96220FEF763F90020F0
:10272000FEF760F97820FEF75DF90020FEF75AF910
:102730008820FEF757F90020FEF754F99720FEF79E
:1027400051F90020FEF74EF9A620FEF74BF90020C4
:10275000FEF748F9B720FEF745F90020FEF742F9E9
:10276000C220FEF73FF90020FEF73CF9C720FEF734
:1027700039F90020FEF736F9D120FEF733F90020B1
:10278000FEF730F9D520FEF72DF90020FEF72AF9E3
:10279000DD20FEF727F90020FEF724F9F320FEF7ED
:1027A00021F90020FEF71EF9E420FEF717F90120B9
:1027B000FEF718F90020FEF715F90120FEF712F9CF
:1027C0000020FEF70FF90220FEF70CF90020FEF7BB
:1027D00009F92A20FEF706F90020FEF703F93C204C
:1027E000FEF700F90020FEF7FDF84B20FEF7FAF89F
:1027F0000020FEF7F7F85D20FEF7F4F80020FEF762
:10280000F1F87420FEF7EEF80020FEF7EBF88420D4
:10281000FEF7E8F80020FEF7E5F89320FEF7E2F86F
:102820000020FEF7DFF8A220FEF7DCF80020FEF71C
:10283000D9F8B320FEF7D6F80020FEF7D3F8BE2073
:10284000FEF7D0F80020FEF7CDF8C420FEF7CAF856
:102850000020FEF7C7F8CD20FEF7C4F80020FEF7F1
:10286000C1F8D320FEF7BEF80020FEF7BBF8DD204C
:10287000FEF7B8F80020FEF7B5F8F320FEF7B2F83F
:102880000020FEF7AFF8E520FEF7A8F80020FEF7DD
:10289000A9F80020FEF7A6F80020FEF7A3F8002014
:1028A000FEF7A0F80220FEF79DF80020FEF79AF848
:1028B0002920FEF797F80020FEF794F83C20FEF759
:1028C00091F80020FEF78EF84B20FEF78BF80020E1
:1028D000FEF788F85D20FEF785F80020FEF782F805
:1028E0007420FEF77FF80020FEF77CF88420FEF7C6
:1028F00079F80020FEF776F89320FEF773F80020B1
:10290000FEF770F8A220FEF76DF80020FEF76AF8D7
:10291000B320FEF767F80020FEF764F8BE20FEF74C
:1029200061F80020FEF75EF8C420FEF75BF8002097
:10293000FEF758F8CD20FEF755F80020FEF752F8C4
:10294000D320FEF74FF80020FEF74CF8DC20FEF70E
:1029500049F80020FEF746F8F320FEF743F8002080
:10296000FEF740F8E620FEF739F81120FEF73AF8B6
:102970000020FEF737F83420FEF734F80020FEF789
:1029800031F85620FEF72EF80020FEF72BF87620BF
:10299000FEF728F80020FEF725F87720FEF722F84A
:1029A0000020FEF71FF86620FEF71CF80020FEF757
:1029B00019F88820FEF716F80020FEF713F8992082
:1029C000FEF710F80020FEF70DF8BB20FEF70AF81E
:1029D0000020FEF707F89920FEF704F80020FEF724
:1029E00001F86620FDF7FEFF0020FDF7FBFF5520F4
:1029F000FDF7F8FF0020FDF7F5FF5520FDF7F2FF8A
:102A00000020FDF7EFFF4520FDF7ECFF0020FDF76C
:102A1000E9FF4320FDF7E6FF0020FDF7E3FF442038
:102A2000FDF7E0FF0020FDF7DDFFE720FDF7D6FF13
:102A30003220FDF7D7FF0020FDF7D4FF5520FDF72A
:102A4000D1FF0020FDF7CEFF7620FDF7CBFF002061
:102A5000FDF7C8FF6620FDF7C5FF0020FDF7C2FFA8
:102A60006720FDF7BFFF0020FDF7BCFF6720FDF7E3
:102A7000B9FF0020FDF7B6FF8720FDF7B3FF002068
:102A8000FDF7B0FF9920FDF7ADFF0020FDF7AAFF8D
:102A9000BB20FDF7A7FF0020FDF7A4FF9920FDF75D
:102AA000A1FF0020FDF79EFF7720FDF79BFF002090
:102AB000FDF798FF4420FDF795FF0020FDF792FFFA
:102AC0005620FDF78FFF0020FDF78CFF2320FDF738
:102AD00089FF0020FDF786FF3320FDF783FF0020EC
:102AE000FDF780FF4520FDF77DFF0020FDF77AFF11
:102AF000E820FDF773FF0020FDF774FF0020FDF7CD
:102B000071FF9920FDF76EFF0020FDF76BFF872016
:102B1000FDF768FF0020FDF765FF8820FDF762FFE5
:102B20000020FDF75FFF7720FDF75CFF0020FDF739
:102B300059FF6620FDF756FF0020FDF753FF882060
:102B4000FDF750FF0020FDF74DFFAA20FDF74AFFDB
:102B50000020FDF747FFBB20FDF744FF0020FDF7F5
:102B600041FF9920FDF73EFF0020FDF73BFF662067
:102B7000FDF738FF0020FDF735FF5520FDF732FF48
:102B80000020FDF72FFF5520FDF72CFF0020FDF75B
:102B900029FF4420FDF726FF0020FDF723FF4420F6
:102BA000FDF720FF0020FDF71DFF5520FDF71AFF60
:102BB0000020FDF717FFE920FDF710FFAA20FDF721
:102BC00011FF0020FDF70EFF0020FDF70BFF002096
:102BD000FDF708FF0020FDF701FFAA20FDF702FF27
:102BE000CF20FDF7FBFE0020FDF7FCFE0020FDF7E7
:102BF000F9FE0020FDF7F6FE0020FDF7F3FE0020B1
:102C0000FDF7F0FE0020FDF7EDFE0020FDF7EAFEE7
:102C10000020FDF7E7FE0020FDF7E4FE0020FDF7B1
:102C2000E1FE0020FDF7DEFE0020FDF7DBFE0020C8
:102C3000FDF7D8FE0020FDF7D5FE0020FDF7D2FEFF
:102C40000020FDF7CFFE0020FDF7CCFEF020FDF7C1
:102C5000C5FE0020FDF7C6FE5020FDF7C3FE002094
:102C6000FDF7C0FE0020FDF7BDFE0020FDF7BAFE17
:102C7000F320FDF7B3FE0020FDF7B4FEF920FDF7C9
:102C8000ADFE0620FDF7AEFE1020FDF7ABFE2920BD
:102C9000FDF7A8FE0020FDF7A5FE3A20FDF79EFEF9
:102CA0005520FDF79FFE1120FDF798FE642002F0ED
:102CB00040FF2920FDF792FE3520FDF78FFE002012
:102CC000FDF790FE5120FDF789FEFF20FDF78AFEFB
:102CD0005320FDF783FE2C20FDF784FE5520FDF7E1
:102CE0007DFE8220FDF77EFE2C20FDF777FE02F0B0
:102CF000E9B8FE48808845F2105188427ED15521BE
:102D00004FF47040FDF77AFEAA214FF20100FDF763
:102D100075FE52214FF20200FDF770FE08214FF2BE
:102D20000300FDF76BFE01214FF20400FDF766FE84
:102D30000D214FF43040FDF761FE0D214BF20100F3
:102D4000FDF75CFE0D214BF20200FDF757FE34212A
:102D50004FF43640FDF752FE34214BF20160FDF78F
:102D60004DFE34214BF20260FDF748FE0D214FF479
:102D70003140FDF743FE0D214BF20110FDF73EFE01
:102D80000D214BF20210FDF739FE34214FF437408C
:102D9000FDF734FE34214BF20170FDF72FFE342194
:102DA0004BF20270FDF72AFE00214FF43240FDF78E
:102DB00025FE00214BF20120FDF720FE00214BF201
:102DC0000220FDF71BFE24214FF43840FDF716FECC
:102DD00024214BF60100FDF711FE24214BF60200E1
:102DE000FDF70CFE01214FF43F40FDF707FE0F21D8
:102DF0004FF43340FDF702FE0F2100E0FEE34BF2FB
:102E00000130FDF7FBFD0F214BF20230FDF7F6FD1F
:102E100034214FF43940FDF7F1FD34214BF6011018
:102E2000FDF7ECFD34214BF60210FDF7E7FD08211C
:102E30004FF43540FDF7E2FD08214BF20150FDF75C
:102E4000DDFD08214BF20250FDF7D8FD03214FF4C0
:102E50004240FDF7D3FD24214FF43A40FDF7CEFD6B
:102E600024214BF60120FDF7C9FD24214BF6022059
:102E7000FDF7C4FD00214FF43C40FDF7BFFD782174
:102E80004BF60140FDF7BAFD00214BF60240FDF77D
:102E9000B5FD00214FF43D40FDF7B0FD78214BF624
:102EA0000150FDF7ABFD00214BF60250FDF7A6FDEA
:102EB00000214FF43E40FDF7A1FD64214BF6016077
:102EC000FDF79CFD00214FF45140FDF797FD3321A4
:102ED0004DF20110FDF792FD00214DF20210FDF7B9
:102EE0008DFD34214DF20310FDF788FD00214DF2D8
:102EF0000410FDF783FD3A214DF20510FDF77EFD2C
:102F000000214DF20610FDF779FD4A214DF2071020
:102F1000FDF774FD00214DF20810FDF76FFD5C21F7
:102F20004DF20910FDF76AFD00214DF20A10FDF780
:102F300065FD81214DF20B10FDF760FD00214DF282
:102F40000C10FDF75BFDA6214DF20D10FDF756FDAF
:102F500000214DF20E10FDF751FDE5214DF20F104D
:102F6000FDF74CFD01214DF21010FDF747FD132137
:102F70004DF21110FDF742FD01214DF21210FDF747
:102F80003DFD54214DF21310FDF738FD01214DF2A6
:102F90001410FDF733FD82214DF21510FDF72EFDC3
:102FA00001214DF21610FDF729FDCA214DF217102F
:102FB000FDF724FD02214DF21810FDF71FFD002141
:102FC0004DF21910FDF71AFD02214DF21A10FDF70E
:102FD00015FD01214DF21B10FDF710FD02214DF2F0
:102FE0001C10FDF70BFD34214DF21D10FDF706FD01
:102FF00002214DF21E10FDF701FD67214DF21F1059
:10300000FDF7FCFC02214DF22010FDF7F7FC8421B6
:103010004DF22110FDF7F2FC02214DF22210FDF7D6
:10302000EDFCA4214DF22310FDF7E8FC02214DF246
:103030002410FDF7E3FCB7214DF22510FDF7DEFC6F
:1030400002214DF22610FDF7D9FCCF214DF22710B9
:10305000FDF7D4FC02214DF22810FDF7CFFCDE2154
:103060004DF22910FDF7CAFC02214DF22A10FDF79E
:10307000C5FCF2214DF22B10FDF7C0FC02214DF2F0
:103080002C10FDF7BBFCFE214DF22D10FDF7B6FC18
:1030900003214DF22E10FDF7B1FC10214DF22F103F
:1030A000FDF7ACFC03214DF23010FDF7A7FC3321F6
:1030B0004DF23110FDF7A2FC03214DF23210FDF765
:1030C0009DFC6D214DF23310FDF798FC00214FF46B
:1030D0005240FDF793FC33214DF20120FDF78EFCA9
:1030E00000214DF20220FDF789FC01E06000002084
:1030F00034214DF20320FDF781FC00214DF2042024
:10310000FDF77CFC3A214DF20520FDF777FC00210C
:103110004DF20620FDF772FC4A214DF20720FDF723
:103120006DFC00214DF20820FDF768FC5C214DF29A
:103130000920FDF763FC00214DF20A20FDF75EFC3B
:1031400081214DF20B20FDF759FC00214DF20C209E
:10315000FDF754FCA6214DF20D20FDF74FFC002198
:103160004DF20E20FDF74AFCE5214DF20F20FDF750
:1031700045FC01214DF21020FDF740FC13214DF2DA
:103180001120FDF73BFC01214DF21220FDF736FC2A
:1031900054214DF21320FDF731FC01214DF2142092
:1031A000FDF72CFC82214DF21520FDF727FC0121B3
:1031B0004DF21620FDF722FCCA214DF21720FDF733
:1031C0001DFC02214DF21820FDF718FC00214DF2E4
:1031D0001920FDF713FC02214DF21A20FDF70EFC19
:1031E00001214DF21B20FDF709FC02214DF21C20AC
:1031F000FDF704FC34214DF21D20FDF7FFFB0221F9
:103200004DF21E20FDF7FAFB67214DF21F20FDF75E
:10321000F5FB02214DF22020FDF7F0FB84214DF259
:103220002120FDF7EBFB02214DF22220FDF7E6FB0A
:10323000A4214DF22320FDF7E1FB02214DF22420D1
:10324000FDF7DCFBB7214DF22520FDF7D7FB02216E
:103250004DF22620FDF7D2FBCF214DF22720FDF7BE
:10326000CDFB02214DF22820FDF7C8FBDE214DF2F7
:103270002920FDF7C3FB02214DF22A20FDF7BEFBFA
:10328000F2214DF22B20FDF7B9FB02214DF22C204B
:10329000FDF7B4FBFE214DF22D20FDF7AFFB03211E
:1032A0004DF22E20FDF7AAFB10214DF22F20FDF745
:1032B000A5FB03214DF23020FDF7A0FB33214DF299
:1032C0003120FDF79BFB03214DF23220FDF796FBE9
:1032D0006D214DF23320FDF791FB00214FF4534057
:1032E000FDF78CFB33214DF20130FDF787FB002108
:1032F0004DF20230FDF782FB34214DF20330FDF731
:103300007DFB00214DF20430FDF778FB3A214DF2B0
:103310000530FDF773FB00214DF20630FDF76EFB23
:103320004A214DF20730FDF769FB00214DF20830CC
:10333000FDF764FB5C214DF20930FDF75FFB0021D6
:103340004DF20A30FDF75AFB81214DF20B30FDF7AB
:1033500055FB00214DF20C30FDF750FBA6214DF23C
:103360000D30FDF74BFB00214DF20E30FDF746FB13
:10337000E5214DF20F30FDF741FB01214DF21030F8
:10338000FDF73CFB13214DF21130FDF737FB012116
:103390004DF21230FDF732FB54214DF21330FDF7A0
:1033A0002DFB01214DF21430FDF728FB82214DF257
:1033B0001530FDF723FB01214DF21630FDF71EFB02
:1033C000CA214DF21730FDF719FB02214DF21830DA
:1033D000FDF714FB00214DF21930FDF70FFB022120
:1033E0004DF21A30FDF70AFB01214DF21B30FDF7BB
:1033F00005FB02214DF21C30FDF700FB34214DF29C
:103400001D30FDF7FBFA02214DF21E30FDF7F6FAF2
:1034100067214DF21F30FDF7F1FA02214DF2203005
:10342000FDF7ECFA84214DF22130FDF7E7FA022195
:103430004DF22230FDF7E2FAA4214DF22330FDF7E0
:10344000DDFA02214DF22430FDF7D8FAB7214DF212
:103450002530FDF7D3FA02214DF22630FDF7CEFAE2
:10346000CF214DF22730FDF7C9FA02214DF2283065
:10347000FDF7C4FADE214DF22930FDF7BFFA022133
:103480004DF22A30FDF7BAFAF2214DF22B30FDF75A
:10349000B5FA02214DF22C30FDF7B0FAFE214DF2C3
:1034A0002D30FDF7ABFA03214DF22E30FDF7A6FAD1
:1034B00010214DF22F30FDF7A1FA03214DF23030EB
:1034C000FDF79CFA33214DF23130FDF797FA0321D5
:1034D0004DF23230FDF792FA6D214DF23330FDF7A7
:1034E0008DFA00214FF45440FDF788FA33214DF254
:1034F0000140FDF783FA00214DF20240FDF77EFA0C
:1035000034214DF20340FDF779FA00214DF20440D9
:10351000FDF774FA3A214DF20540FDF76FFA0021EC
:103520004DF20640FDF76AFA4A214DF20740FDF7D9
:1035300065FA00214DF20840FDF760FA5C214DF27A
:103540000940FDF75BFA00214DF20A40FDF756FAFB
:1035500081214DF20B40FDF751FA00214DF20C4054
:10356000FDF74CFAA6214DF20D40FDF747FA002178
:103570004DF20E40FDF742FAE5214DF20F40FDF706
:103580003DFA01214DF21040FDF738FA13214DF2BA
:103590001140FDF733FA01214DF21240FDF72EFAEA
:1035A00054214DF21340FDF729FA01214DF2144048
:1035B000FDF724FA82214DF21540FDF71FFA012193
:1035C0004DF21640FDF71AFACA214DF21740FDF7E9
:1035D00015FA02214DF21840FDF710FA00214DF2C4
:1035E0001940FDF70BFA02214DF21A40FDF706FAD9
:1035F00001214DF21B40FDF701FA00E004E3022136
:103600004DF21C40FDF7FAF934214DF21D40FDF753
:10361000F5F902214DF21E40FDF7F0F967214DF258
:103620001F40FDF7EBF902214DF22040FDF7E6F9CE
:1036300084214DF22140FDF7E1F902214DF22240B3
:10364000FDF7DCF9A4214DF22340FDF7D7F9022163
:103650004DF22440FDF7D2F9B7214DF22540FDF798
:10366000CDF902214DF22640FDF7C8F9CF214DF2E8
:103670002740FDF7C3F902214DF22840FDF7BEF9BE
:10368000DE214DF22940FDF7B9F902214DF22A4021
:10369000FDF7B4F9F2214DF22B40FDF7AFF902210D
:1036A0004DF22C40FDF7AAF9FE214DF22D40FDF719
:1036B000A5F903214DF22E40FDF7A0F910214DF29E
:1036C0002F40FDF79BF903214DF23040FDF796F9AD
:1036D00033214DF23140FDF791F903214DF2324093
:1036E000FDF78CF96D214DF23340FDF787F900218C
:1036F0004FF45540FDF782F933214DF20150FDF7AB
:103700007DF900214DF20250FDF778F934214DF298
:103710000350FDF773F900214DF20450FDF76EF9E7
:103720003A214DF20550FDF769F900214DF206509E
:10373000FDF764F94A214DF20750FDF75FF90021CA
:103740004DF20850FDF75AF95C214DF20950FDF792
:1037500055F900214DF20A50FDF750F981214DF243
:103760000B50FDF74BF900214DF20C50FDF746F9D7
:10377000A6214DF20D50FDF741F900214DF20E50FA
:10378000FDF73CF9E5214DF20F50FDF737F9012126
:103790004DF21050FDF732F913214DF21150FDF7A3
:1037A0002DF901214DF21250FDF728F954214DF267
:1037B0001350FDF723F901214DF21450FDF71EF9C6
:1037C00082214DF21550FDF719F901214DF21650E5
:1037D000FDF714F9CA214DF21750FDF70FF9022138
:1037E0004DF21850FDF70AF900214DF21950FDF77E
:1037F00005F902214DF21A50FDF700F901214DF2B1
:103800001B50FDF7FBF802214DF21C50FDF7F6F8B6
:1038100034214DF21D50FDF7F1F802214DF21E50FA
:10382000FDF7ECF867214DF21F50FDF7E7F8022194
:103830004DF22050FDF7E2F884214DF22150FDF7C2
:10384000DDF802214DF22250FDF7D8F8A4214DF207
:103850002350FDF7D3F802214DF22450FDF7CEF8A6
:10386000B7214DF22550FDF7C9F802214DF226503F
:10387000FDF7C4F8CF214DF22750FDF7BFF8022124
:103880004DF22850FDF7BAF8DE214DF22950FDF730
:10389000B5F802214DF22A50FDF7B0F8F2214DF2B1
:1038A0002B50FDF7ABF802214DF22C50FDF7A6F896
:1038B000FE214DF22D50FDF7A1F803214DF22E50BF
:1038C000FDF79CF810214DF22F50FDF797F80321DA
:1038D0004DF23050FDF792F833214DF23150FDF7A3
:1038E0008DF803214DF23250FDF788F86D214DF22D
:1038F0003350FDF783F800214FF45640FDF77EF872
:1039000033214DF20160FDF779F800214DF202609C
:10391000FDF774F834214DF20360FDF76FF80021D4
:103920004DF20460FDF76AF83A214DF20560FDF7AB
:1039300065F800214DF20660FDF760F84A214DF26E
:103940000760FDF75BF800214DF20860FDF756F8BF
:103950005C214DF20960FDF751F800214DF20A603B
:10396000FDF74CF881214DF20B60FDF747F800217F
:103970004DF20C60FDF742F8A6214DF20D60FDF707
:103980003DF800214DF20E60FDF738F8E5214DF2CB
:103990000F60FDF733F801214DF21060FDF72EF8AE
:1039A00013214DF21160FDF729F801214DF212604B
:1039B000FDF724F854214DF21360FDF71FF80121A3
:1039C0004DF21460FDF71AF882214DF21560FDF7F3
:1039D00015F801214DF21660FDF710F8CA214DF2DD
:1039E0001760FDF70BF802214DF21860FDF706F89D
:1039F00000214DF21960FDF701F802214DF21A6025
:103A0000FCF7FCFF01214DF21B60FCF7F7FF0221E0
:103A10004DF21C60FCF7F2FF34214DF21D60FCF703
:103A2000EDFF02214DF21E60FCF7E8FF67214DF229
:103A30001F60FCF7E3FF02214DF22060FCF7DEFF80
:103A400084214DF22160FCF7D9FF02214DF2226062
:103A5000FCF7D4FFA4214DF22360FCF7CFFF022135
:103A60004DF22460FCF7CAFFB7214DF22560FCF748
:103A7000C5FF02214DF22660FCF7C0FFCF214DF2B9
:103A80002760FCF7BBFF02214DF22860FCF7B6FF70
:103A9000DE214DF22960FCF7B1FF02214DF22A60D0
:103AA000FCF7ACFFF2214DF22B60FCF7A7FF0221DF
:103AB0004DF22C60FCF7A2FFFE214DF22D60FCF7C9
:103AC0009DFF03214DF22E60FCF798FF10214DF26F
:103AD0002F60FCF793FF03214DF23060FCF78EFF5F
:103AE00033214DF23160FCF789FF03214DF2326042
:103AF000FCF784FF6D214DF23360FCF77FFF552109
:103B00004FF47040FCF77AFFAA214FF20100FCF756
:103B100075FF52214FF20200FCF770FF08214FF2AF
:103B20000300FCF76BFF00214FF20400FCF766FF77
:103B3000CC214FF43140FCF761FF00214BF2011022
:103B4000FCF75CFF05214FF43640FCF757FF70216E
:103B50004FF43740FCF752FF70214BF20170FCF735
:103B60004DFF01214FF43840FCF748FF03214BF68D
:103B70000100FCF743FF03214BF60200FCF73EFF78
:103B800003214BF60300FCF739FF02214FF43C40C0
:103B9000FCF734FF00214BF60140FCF72FFF00211A
:103BA0004BF60240FCF72AFFD0214FF44940FCF7C6
:103BB00025FF02214CF60110FCF720FF50214CF6A6
:103BC0000210FCF71BFF50214CF60310FCF716FF08
:103BD00050214CF60410FCF711FF00214FF4545013
:103BE000FCF70CFF55214FF46850FCF707FF4FF42A
:103BF0008850FCF7F3FE782001F077FF4FF4245053
:103C0000FCF7ECFE01F05EB9FE48808849F22531F0
:103C100088427DD147F6F001E520FCF7EFFE4FF436
:103C200080710120FCF7EAFE4FF4E0610220FCF70E
:103C3000E5FE41F230010320FCF7E0FE0021042004
:103C4000FCF7DCFE40F202210820FCF7D7FE002141
:103C50000920FCF7D3FE00210A20FCF7CFFE00214B
:103C60000C20FCF7CBFE00210D20FCF7C7FE002145
:103C70000F20FCF7C3FE00211020FCF7BFFE072138
:103C80001120FCF7BBFE00211220FCF7B7FE00213B
:103C90001320FCF7B3FE00210720FCF7AFFE41F232
:103CA00090611020FCF7AAFE40F227211120FCF7BA
:103CB000A5FE9D211220FCF7A1FE4FF4C851132050
:103CC000FCF79CFE25212920FCF798FE0D212B20D6
:103CD000FCF794FE07213020FCF790FE40F2033100
:103CE0003120FCF78BFE03213220FCF787FE40F2E7
:103CF00006213520FCF782FE08213620FCF77EFEE7
:103D000040F206413720FCF779FE4FF4417100E0A4
:103D100058E03820FCF772FE07213920FCF76EFED0
:103D200040F202613C20FCF769FE08213D20FCF7CF
:103D300065FE00215020FCF761FEEF215120FCF7C9
:103D40005DFE00215220FCF759FE40F23F11532046
:103D5000FCF754FE4FF427416020FCF74FFE012191
:103D60006120FCF74BFE00216A20FCF747FE002192
:103D70008020FCF743FE00218120FCF73FFE00215C
:103D80008220FCF73BFE00218320FCF737FE002158
:103D90008420FCF733FE00218520FCF72FFE102144
:103DA0009020FCF72BFE4FF4C0619220FCF726FE1A
:103DB00040F233110720FCF721FE22210020FCF7FE
:103DC0001DFE1FE78F48808849F2283188427DD147
:103DD00041F28F01EC20FCF711FE41F23421EF207B
:103DE000FCF70CFE4FF480710120FCF707FE4FF446
:103DF000E0610220FCF702FE41F230010320FCF7F3
:103E0000FDFD00210420FCF7F9FD40F2022108200D
:103E1000FCF7F4FD00210920FCF7F0FD00210A2049
:103E2000FCF7ECFD01210C20FCF7E8FD00210D2042
:103E3000FCF7E4FD00210F20FCF7E0FD002110203D
:103E4000FCF7DCFD07211120FCF7D8FD0021122032
:103E5000FCF7D4FD00211320FCF7D0FD0121072041
:103E6000FCF7CCFD322001F064FE41F290411020BD
:103E7000FCF7C4FD40F227211120FCF7BFFD3220E2
:103E800001F057FE8A211220FCF7B8FD322001F024
:103E900050FE4FF4D0511320FCF7B0FD062129202D
:103EA000FCF7ACFD0D212B20FCF7A8FD322001F022
:103EB00040FE00212020FCF7A1FD00212120FCF77D
:103EC0009DFD322001F035FE002100E075E030203C
:103ED000FCF794FD40F204613120FCF78FFD40F2C5
:103EE00005313220FCF78AFD00213520FCF786FDE4
:103EF00040F609413620FCF781FD4FF4017137206F
:103F0000FCF77CFD40F201313820FCF777FD40F2F0
:103F100007713920FCF772FD00213C20FCF76EFD93
:103F200040F60A213D20FCF769FD322001F001FE38
:103F300000215020FCF762FDEF215120FCF75EFDCF
:103F400000215220FCF75AFD40F23F115320FCF7AC
:103F500055FD4FF427416020FCF750FD0121612001
:103F6000FCF74CFD00216A20FCF748FD0021802071
:103F7000FCF744FD00218120FCF740FD0021822058
:103F8000FCF73CFD00218320FCF738FD0021842054
:103F9000FCF734FD00218520FCF730FD1021902036
:103FA000FCF72CFD4FF4C0619220FCF727FD40F296
:103FB00033110720FCF722FD24E61248808849F2DD
:103FC000203188427ED100210846FCF717FD4FF4CE
:103FD00080710120FCF712FD4FF4E0610220FCF734
:103FE0000DFD41F230010320FCF708FD0021042003
:103FF000FCF704FD40F202210820FCF7FFFC002141
:10400000092001E060000020FCF7F8FC00210A20F4
:10401000FCF7F4FC01210C20FCF7F0FC00210D2042
:10402000FCF7ECFC00210F20FCF7E8FC322001F04B
:1040300080FD40F201110720FCF7E0FC322001F086
:1040400078FD4FF486511020FCF7D8FC0721112091
:10405000FCF7D4FC4FF488711220FCF7CFFC4FF42E
:1040600030611320FCF7CAFC00212920FCF7C6FCB4
:1040700044F210012B20FCF7C1FC00215020FCF77A
:10408000BDFCEF215120FCF7B9FC00215220FCF7C8
:10409000B5FC40F23F115320FCF7B0FC4FF41C512B
:1040A0006020FCF7ABFC01216120FCF7A7FC00219C
:1040B0006A20FCF7A3FC00218020FCF79FFC002174
:1040C000812000E030E0FCF799FC00218220FCF721
:1040D00095FC00218320FCF791FC00218420FCF753
:1040E0008DFC00218520FCF789FC10219020FCF735
:1040F00085FC00219220FCF781FC01219320FCF734
:104100007DFC4FF488719520FCF778FC0021972006
:10411000FCF774FC00219820FCF770FC40F273114E
:104120000720FCF76BFC6DE5FE48808849F23131D1
:1041300088427DD141F21401E720FCF75FFC4FF487
:1041400080710120FCF75AFC4FF400710220FCF74B
:1041500055FC41F238010320FCF750FC40F20221EB
:104160000820FCF74BFC00210920FCF747FC00214C
:104170000A20FCF743FC00210C20FCF73FFC002147
:104180000D20FCF73BFC00210F20FCF737FC002141
:104190001020FCF733FC07211120FCF72FFC002135
:1041A0001220FCF72BFC00211320FCF727FCC82071
:1041B00001F0BFFC41F290611020FCF71FFC40F2BF
:1041C00027211120FCF71AFC322001F0B2FC0C214F
:1041D0001220FCF713FC322001F0ABFC4FF400611D
:1041E0001320FCF70BFC11212920FCF707FC0B2105
:1041F0002B20FCF703FC322001F09BFC0021202047
:10420000FCF7FCFB40F23F112120FCF7F7FB0021FB
:104210003020FCF7F3FB4FF483713120FCF7EEFB09
:1042200000213220FCF7EAFB4FF40171352000E059
:1042300064E0FCF7E3FB41F20A613620FCF7DEFBA9
:1042400040F207713720FCF7D9FB4FF48371382017
:10425000FCF7D4FB40F207713920FCF7CFFB40F2AA
:1042600002413C20FCF7CAFB40F60F413D20FCF721
:10427000C5FB00215020FCF7C1FBEF215120FCF7CA
:10428000BDFB00215220FCF7B9FB40F23F11532047
:10429000FCF7B4FB4FF41C516020FCF7AFFB01218D
:1042A0006120FCF7ABFB00216A20FCF7A7FB002193
:1042B0008020FCF7A3FB00218120FCF79FFB00215D
:1042C0008220FCF79BFB00218320FCF797FB002159
:1042D0008420FCF793FB00218520FCF78FFB102145
:1042E0009020FCF78BFB4FF4C0619220FCF786FB1B
:1042F00040F233110720FCF781FB83E48948808872
:1043000045F2084188427DD14FF480710120FCF7CD
:1043100075FB4FF4E0610220FCF770FB41F23001C5
:104320000320FCF76BFB00210420FCF767FB40F245
:1043300007210820FCF762FB00210920FCF75EFB47
:1043400000210A20FCF75AFB00210C20FCF756FB49
:1043500000210D20FCF752FB00210F20FCF74EFB43
:10436000142001F0E6FB41F2B0611020FCF746FB9F
:1043700001211120FCF742FB01211720FCF73EFB35
:104380004FF49C711220FCF739FB4FF400611320AD
:10439000FCF734FB09212920FCF730FB09212A20F6
:1043A000FCF72CFB0021A420FCF728FB0021502067
:1043B000FCF724FBEF215120FCF720FB00215220C9
:1043C000FCF71CFB40F23F115320FCF717FB4FF4A6
:1043D0001C516020FCF712FB01216120FCF70EFB51
:1043E00000216A20FCF70AFB00218020FCF706FB75
:1043F00000218120FCF702FB00218220FCF7FEFA5D
:10440000002100E024E08320FCF7F8FA002184205A
:10441000FCF7F4FA00218520FCF7F0FA1321902034
:10442000FCF7ECFA00219220FCF7E8FA0321932034
:10443000FCF7E4FA4FF488719520FCF7DFFA40F2BC
:1044400073110720FCF7DAFA322001F072FBB8E4AE
:104450003448808841F2055188427DD100210720EF
:10446000FCF7CCFA322001F064FB4FF48E7112207D
:10447000FCF7C4FA0121A420FCF7C0FA0F210820A0
:10448000FCF7BCFA08210A20FCF7B8FA08210D2035
:10449000FCF7B4FA40F207713020FCF7AFFA0721BD
:1044A0003120FCF7ABFA40F203613220FCF7A6FAA8
:1044B0004FF4E0613320FCF7A1FA40F202213420EE
:1044C000FCF79CFA02213520FCF798FA41F60F71AF
:1044D0003620FCF793FA40F207713720FCF78EFA8A
:1044E00000213820FCF78AFA00213920FCF786FAEF
:1044F00040F207713A20FCF781FA00213B20FCF7DB
:104500007DFA07213C20FCF779FA00213D20FCF7D9
:1045100075FA322001F00DFB01210720FCF76EFA3D
:10452000012101E0600000201720FCF767FA32202B
:1045300001F0FFFA4FF4BD511020FCF75FFA40F292
:1045400017211120FCF75AFA4FF48F711220FCF753
:1045500055FA4FF4706100E098E01320FCF74EFA32
:1045600000212A20FCF74AFA0A212920FCF746FA02
:104570004FF49F711220FCF741FA00215020FCF704
:104580003DFAEF215120FCF739FA00215220FCF7C7
:1045900035FA40F23F115320FCF730FA4FF41C512A
:1045A0006020FCF72BFA01216120FCF727FA00219B
:1045B0006A20FCF723FA00218020FCF71FFA002173
:1045C0008120FCF71BFA00218220FCF717FA00215A
:1045D0008320FCF713FA00218420FCF70FFA002156
:1045E0008520FCF70BFA13219020FCF707FA4FF413
:1045F00040719220FCF702FA05219320FCF7FEF9A6
:1046000000219520FCF7FAF900219720FCF7F6F934
:1046100000219820FCF7F2F94FF480710120FCF79B
:10462000EDF94FF4E0610220FCF7E8F941F23801BE
:104630000320FCF7E3F900210420FCF7DFF9002157
:104640000C20FCF7DBF900210F20FCF7D7F9002143
:104650002020FCF7D3F900212120FCF7CFF92121FC
:104660000720FCF7CBF9142001F063FA6121072041
:10467000FCF7C4F9142001F05CFA40F27311072032
:10468000FCF7BCF9142001F054FA95E4FE48808848
:104690004BF2055188427CD100210846FCF7AEF967
:1046A00000210846FCF7AAF900210846FCF7A6F904
:1046B00000210846FCF7A2F90121A420FCF79EF98D
:1046C000142001F036FA4FF41C516020FCF796F9E3
:1046D00040F202210820FCF791F94FF405713020D7
:1046E000FCF78CF943F215713120FCF787F940F2A1
:1046F00004613220FCF782F940F616613320FCF7A2
:104700007DF942F211213420FCF778F94FF4A851D9
:104710003520FCF773F948F207513620FCF76EF9A3
:1047200041F207413720FCF769F941F20341382093
:10473000FCF764F920213920FCF760F91A21902058
:10474000FCF75CF900211020FCF758F90721112033
:10475000FCF754F900211220FCF750F90021132036
:10476000FCF74CF9142001F0E4F94FF4E661102055
:10477000FCF744F940F237111120FCF73FF91420FF
:1047800001F0D7F94FF4DC711220FCF737F914204F
:1047900000E085E001F0CDF94FF470611320FCF7E3
:1047A0002DF980212A20FCF729F948212920FCF73E
:1047B00025F9142001F0BDF94FF480710120FCF7B8
:1047C0001DF94FF4E0610220FCF718F941F23801BD
:1047D0000320FCF713F940F202210820FCF70EF940
:1047E00000210A20FCF70AF900210C20FCF706F949
:1047F00000210D20FCF702F930210E20FCF7FEF815
:1048000000215020FCF7FAF8EF215120FCF7F6F8D0
:1048100000215220FCF7F2F840F23F115320FCF740
:10482000EDF84FF41C516020FCF7E8F801216120FD
:10483000FCF7E4F800216A20FCF7E0F81121902051
:10484000FCF7DCF84FF4C0619220FCF7D7F840F297
:1048500002419320FCF7D2F802219420FCF7CEF815
:10486000142001F066F901210720FCF7C7F8142095
:1048700001F05FF961210720FCF7C0F840F27311E5
:104880000720FCF7BBF800212020FCF7B7F8002137
:104890002120FCF7B3F822210020FCF7AFF811E348
:1048A000794880884CF2055188427CD10021084625
:1048B000FCF7A4F800210846FCF7A0F8142001F04A
:1048C00038F900210846FCF799F800210846FCF762
:1048D00095F800210846FCF791F800210846FCF7FE
:1048E0008DF80121A420FCF789F8142001F021F9AA
:1048F0004FF41C516020FCF781F840F606010820B7
:10490000FCF77CF840F203713020FCF777F80121C6
:104910003120FCF773F804213220FCF76FF84FF4D4
:1049200081713320FCF76AF84FF440713420FCF7B2
:1049300065F840F203113520FCF760F81F2136209E
:10494000FCF75CF840F203713720FCF757F80121BF
:104950003820FCF753F804213920FCF74FF81521D3
:104960009020FCF74BF84FF482611020FCF746F8DA
:1049700040F247211120FCF741F84FF4DE7112207C
:10498000FCF73CF84FF460611320FCF737F878200F
:1049900001F0CFF84FF480710120FCF72FF84FF4AD
:1049A0000071022000E052E0FCF728F841F23001EB
:1049B0000320FCF723F808210A20FCF71FF8002148
:1049C0000C20FCF71BF820210E20FCF717F8002123
:1049D0000F20FCF713F800212020FCF70FF800212E
:1049E0002120FCF70BF83D212A20FCF707F81420C2
:1049F00001F09FF82D212920FCF700F8002150201C
:104A0000FBF7FCFF4DF2EF015120FBF7F7FF002110
:104A10005220FBF7F3FF40F23F115320FBF7EEFF6C
:104A200000216120FBF7EAFF00216A20FBF7E6FF87
:104A30004FF440719220FBF7E1FF05219320FBF733
:104A4000DDFF4FF480710720FBF7D8FF3AE20E48F4
:104A5000808844F2315188427ED101210020FBF749
:104A6000CDFF0A2001F065F841F228611020FBF724
:104A7000C5FF0E211220FBF7C1FF40F6392113209C
:104A8000FBF7BCFF0A2001E06000002001F051F8B4
:104A900040211120FBF7B2FF50211520FBF7AEFF9C
:104AA0000A2001F046F81E211220FBF7A7FF0A207A
:104AB00001F03FF84FF4B1511020FBF79FFF42F691
:104AC00039211320FBF79AFF0A2001F032F84FF446
:104AD00080710120FBF792FF4FF440710220FBF739
:104AE0008DFF41F238010320FBF788FF40F20221DD
:104AF0000820FBF783FF08210A20FBF77FFF002136
:104B00003020FBF77BFF40F202413120FBF776FFBC
:104B10004FF483713220FBF771FF40F203513320D1
:104B2000FBF76CFF4FF482713420FBF767FF40F214
:104B300001313520FBF762FF40F207713620FBF7A9
:104B40005DFF40F205313720FBF758FF4FF402714B
:104B50003820FBF753FF00E03EE040F60B713920B0
:104B6000FBF74CFF02214120FBF748FF4FF41C519B
:104B70006020FBF743FF01216120FBF73FFF4FF46B
:104B800004719020FBF73AFF4FF485719220FBF7F8
:104B900035FF04219320FBF731FF4FF48071A020F3
:104BA000FBF72CFF01210720FBF728FF212107201D
:104BB000FBF724FF23210720FBF720FF33210720E9
:104BC000FBF71CFF40F233110720FBF717FF002112
:104BD000A020FBF713FF75E1F748808844F23551B8
:104BE00088427CD130211520FBF708FF10219A2044
:104BF000FBF704FF20211120FBF700FF43F22841BF
:104C00001020FBF7FBFE02211220FBF7F7FE41F21A
:104C100038011320FBF7F2FE282000F08AFF122152
:104C20000846FBF7EBFE282000F083FF43F220410B
:104C30001020FBF7E3FE43F238011320FBF7DEFE02
:104C4000462000F076FF00213020FBF7D7FE40F22F
:104C500002413120FBF7D2FE40F207313220FBF750
:104C6000CDFE4FF441713320FBF7C8FE0421342000
:104C7000FBF7C4FE40F201413520FBF7BFFE40F2D6
:104C800007713620FBF7BAFE40F205313720FBF7FB
:104C9000B5FE4FF4C2613820FBF7B0FE4FF4C2619D
:104CA0003920FBF7ABFE4FF480710120FBF7A6FE25
:104CB0004FF440710220FBF7A1FE41F230010320C6
:104CC000FBF79CFE40F608010820FBF797FE082141
:104CD0000A20FBF793FE4FF41C51602000E033E004
:104CE000FBF78CFE01216120FBF788FE4FF49F71DA
:104CF0009020FBF783FE4FF480719220FBF77EFE3D
:104D00004FF480719320FBF779FE4FF44051A020BF
:104D1000FBF774FE1021A320FBF770FE0121072092
:104D2000FBF76CFE21210720FBF768FE23210720FB
:104D3000FBF764FE33210720FBF760FE40F23311DE
:104D40000720FBF75BFEBDE09B48808841F66311BE
:104D50008842F8D1E220FBF741FE1D20FBF742FE1E
:104D60000220FBF73FFE0420FBF73CFE642000F02E
:104D7000BCFEE020FBF732FE0120FBF733FE0A20E9
:104D800000F0D7FEE020FBF729FE0320FBF72AFE08
:104D90000C2000F0CEFE0120FBF720FE0A2000F0E0
:104DA000C8FEE620FBF71AFE2F20FBF71BFEFF20B4
:104DB000FBF718FEFF20FBF715FEB020FBF70EFEF9
:104DC0002020FBF70FFE0020FBF70CFE0320FBF773
:104DD00009FE40F21F30FBF705FE0120FBF702FE43
:104DE00040F2DF10FBF7FEFD0020FBF7FBFDB420D7
:104DF000FBF7F4FD0420FBF7F5FD40F21F40FBF745
:104E0000F1FD0020FBF7EEFD2E20FBF7EBFD00206F
:104E1000FBF7E8FD0020FBF7E5FD0020FBF7E2FDD6
:104E20000020FBF7DFFDB620FBF7D8FD0220FBF7E3
:104E3000D9FD4FF40370FBF7D5FD0020FBF7D2FD41
:104E40001720FBF7CFFD1520FBF7CCFD0020FBF76B
:104E5000C9FD0020FBF7C6FDF020FBF7BFFD0320D6
:104E6000FBF7C0FD2920FBF7B9FDD020FBF7B6FD0D
:104E70000020FBF7B7FDBE20FBF7B0FD0520FBF7D8
:104E8000B1FDFE20FBF7AEFD0120FBF7ABFD0020DE
:104E9000FBF7A8FD0020FBF7A5FD0020FBF7A2FD16
:104EA000B820FBF79BFD0320FBF79CFD0120FBF7DF
:104EB00099FDBA20FBF792FD0120FBF793FD6420DA
:104EC000FCF7EFF90020FCF714FA01203B490860D9
:104ED0004FF6FF70FCF7F8FB1FB000BD2DE9FC4F4B
:104EE00005460E4617469846DDF82C9000200190A6
:104EF0003148808846F60401884229D12E488079BD
:104F0000012825D1AB4635462B480088C01B401EE2
:104F100086B2474628480088A0EB0B00401E1FFAC7
:104F200080F80020244988712A2048812B2088811C
:104F300043463A4631462846CDF80090FFF7CEFF6B
:104F400001201D4988712B2048812A2088811DE07D
:104F5000781B401C80B20190344615E0214628465B
:104F6000FBF77AFDFBF75AFD4FF0000A07E04FF020
:104F7000D840A0F802900AF101001FFA80FA0198C7
:104F80008245F4DB601C84B24445E7DDBDE8FC8F5C
:104F90002DE9F84F07460D4690469946DDF828B0B2
:104FA000A8EB0700401C1FFA80FAA9EB0500401C83
:104FB00080B20090002419E060000020808121422E
:104FC000281981B23846FBF747FDFBF727FD00267D
:104FD00008E004FB0A603BF810004FF0D84148801D
:104FE000701C86B25645F4DB601C84B20098844283
:104FF000E6DBBDE8F88F2DE9FF4F84B081468A4695
:105000000020039002900698A0EB09050798A0EBFA
:105010000A06CDF80490CDF800A0002D01DD01278F
:1050200005E00DB9002702E04FF0FF376D42002E7A
:1050300002DD4FF0010806E016B94FF0000802E06B
:105040004FF0FF387642B54201DD2C4600E0344691
:105050004FF0000B21E0009A91B2019A90B2FCF758
:1050600052F8039828440390029830440290039821
:10507000A04205DD0398001B03900198384401907D
:105080000298A04205DD0298001B0290009840445F
:1050900000900BF101001FFA80FB601C8345DADDF4
:1050A00008B0BDE8F08FF0B504460D4616461F4621
:1050B0002B46324629462046FFF79DFF3B462246B7
:1050C00029462046FFF797FF3B46324639462046A1
:1050D000FFF791FF3B46324629463046FFF78BFFEC
:1050E000F0BD2DE9F04306460F46904600244546A4
:1050F0000320A0EB48093CE07A1B91B2321990B230
:10510000FCF701F83A1B91B2721990B2FBF7FBFF62
:105110003A1991B2721990B2FBF7F5FF7A1991B270
:10512000321990B2FBF7EFFF7A1991B2321B90B2AD
:10513000FBF7E9FF3A1991B2721B90B2FBF7E3FF5C
:105140007A1B91B2321B90B2FBF7DDFF3A1B91B292
:10515000721B90B2FBF7D7FF641CB9F1000F03DAA2
:10516000A000801D814404E0601B80000A3081445F
:105170006D1EAC42C0DDBDE8F0832DE9F84F8046DE
:105180000E4617461C46B3462046E31704EB5373FE
:10519000DB1021464FEAE47C04EB5C7C4FEAEC0C2C
:1051A000A4EBCC0CBCF1000F02D04FF0010C01E0DD
:1051B0004FF0000C6344224604EBD27C4FEA6C0CA7
:1051C00003FB0CF3DBB20093A7F12000C7B200256C
:1051D00056E00C2C07D107EB47009F4901EB8000FC
:1051E00010F8059013E0102C05D19C4800EB071037
:1051F00010F805900BE0182C07D107EBC700984971
:1052000001EB800010F8059001E0BDE8F88F4FF049
:10521000000A2FE009F0800030B192480288314640
:105220004046FBF77FFF07E00A9828B98E480288BE
:1052300031464046FBF776FF4FEA49604FEA106976
:10524000701C86B289484088B04200DCDDE7A6EBDE
:105250000B00A0420AD15E4608F101001FFA80F857
:1052600082480088404500DCCFE706E00AF10100F3
:1052700000F0FF0ABAF1080FCCDB00BF681CC5B212
:1052800000988542A5DB00BFBFE710B502460120AC
:1052900000E050430B00A1F10104E1B2F9D110BDCF
:1052A0002DE9FF4F81B0074691461E460E9D4FF0F7
:1052B000000A002439E0301B401EC1B20A20FFF76B
:1052C000E4FFB9FBF0F00A21B0FBF1F201FB120898
:1052D000BAF1000F16D1701EA04213DDB8F1000F15
:1052E0000ED10020AB4605EBDB71491001FB0471C8
:1052F000009088B22B4620220299FFF73EFF12E071
:105300004FF0010A0020AB4605EBDB71491001FBB1
:105310000471009088B208F13001CAB22B4602999C
:10532000FFF72BFF00BF601CC4B2B442C3DB05B063
:10533000BDE8F08F2DE9FF4F82B0064692461F462A
:10534000DDE90F480020019000254DE0781B401E4C
:10535000C1B20A20FFF799FFBAFBF0F00A21B0FBB7
:10536000F1F201FB1209019850BB781EA84227DD1B
:10537000B9F1000F22D108F0800078B108F00100E7
:10538000A34604EBDB71491001FB0561009088B274
:10539000234630220399FFF7F0FE0EE008F00100EB
:1053A000A34604EBDB71491001FB0561009088B254
:1053B000234620220399FFF7E0FE13E0012001902D
:1053C00008F00100A34604EBDB71491001FB056105
:1053D000009088B209F13001CAB223460399FFF761
:1053E000CCFE00BF681CC5B2BD42AFDB06B0BDE855
:1053F000F08F2DE9F84704460D4690469946DDE9C1
:10540000096704F0FF0A08EB04001FFA80F809EBB3
:1054100005001FFA80F916E0444502DB5446A8193E
:1054200085B24D4500DB14E0002000903A78334609
:1054300029462046FFF7A1FE304606EBD07104EB6B
:1054400061018CB27F1C38787E2802DC38782028F5
:10545000E2DA00BFBDE8F8871E860008928A0008DD
:10546000829000081C0000201E0000206000002028
:1054700010B5A0480268A0480168A0A001F054FD42
:1054800010BD10B5FFF7F4FF4FF47A7000F051FB38
:105490004FF47A7000F04DFBA2A001F045FD4FF4EF
:1054A0007A7000F046FB9FA001F03EFD4FF47A7049
:1054B00000F03FFB9BA001F037FD4FF47A7000F045
:1054C00038FB99A001F030FD4FF47A7000F031FB09
:1054D00097A001F029FD4FF47A7000F02AFB96A006
:1054E00001F022FD4FF47A7000F023FB4FF47A7044
:1054F00000F01FFB944802689448016894A001F0F2
:1055000013FD4FF47A7000F014FB4FF47A7000F042
:1055100010FB4FF47A7000F00CFB4FF47A7000F03F
:1055200008FB4FF47A7000F004FB8FA001F0FCFC44
:105530004FF47A7000F0FDFA4FF47A7000F0F9FA47
:1055400094A001F0F1FC4FF47A7000F0F2FA4FF4FD
:105550007A7000F0EEFA93A001F0E6FC4FF47A7056
:1055600000F0E7FA6FA001F0DFFC4FF4167000F0D6
:10557000E0FA70A001F0D8FC4FF47A7000F0D9FA8C
:105580008CA001F0D1FC4FF47A7000F0D2FA4FF405
:105590007A7000F0CEFA4FF47A7000F0CAFA4FF445
:1055A0007A7000F0C6FA4FF47A7000F0C2FA4FF445
:1055B0007A7000F0BEFA4FF47A7000F0BAFA4FF445
:1055C0007A7000F0B6FA4FF47A7000F0B2FA4FF445
:1055D0007A7000F0AEFA4FF47A7000F0AAFA4FF445
:1055E0007A7000F0A6FA4FF47A7000F0A2FA4FF445
:1055F0007A7000F09EFA4FF47A7000F09AFA10BDBB
:1056000010B53C4802683C4801686DA001F08CFC74
:1056100010BD10B573A001F087FC10BD70B5044635
:105620000D462A46214673A001F07EFC70BD2DE98F
:10563000FC4104460D469046404602F09FFE2A4635
:10564000CDE90001214673A001F06EFCBDE8FC81AC
:105650002DE9F04F87B00446894692469B46109844
:1056600002F08CFE05460E46584602F087FE4A467A
:105670008DE80304CDE90456214671A001F054FCE5
:1056800007B0BDE8F08FF0B502460B4600240021BC
:10569000188800F4004058B321E000BF12F8015B05
:1056A000222DFBD1002400BF167801EB8100724D42
:1056B00005EB80072046651CECB23E54501C0246A8
:1056C00000782228F0D1002601EB81006A4D05EB1D
:1056D00080072046651CECB23E54481CC1B2501CE9
:1056E000024600787D28D8D1002018800846F0BDF9
:1056F0000020FCE72C000020280000207B224D2207
:105700003A22636865636B6F7574222C22494422C8
:105710003A222573222C224B223A222573227D0A1B
:10572000000000002B2B2B0041540D0A000000004C
:10573000415445300D0A000041542B43574D4F440E
:10574000453D310D0A00000024000020200000200B
:1057500041542B43574A41503D222573222C222588
:1057600073220D0A0000000041542B43495053544A
:105770004152543D22544350222C227777772E6297
:105780006967696F742E6E6574222C383138310D5B
:105790000A00000041542B4349504D4F44453D31D0
:1057A0000D0A000041542B43495053454E440D0A05
:1057B0000000000041542B5253540D0A0000000019
:1057C0007B224D223A22636865636B696E222C222C
:1057D0004944223A222573222C224B223A22257355
:1057E000227D0A007B224D223A2273746174757304
:1057F000227D0A007B224D223A22736179222C22DB
:105800004944223A222573222C2243223A2225732C
:10581000227D0A007B224D223A22757064617465F4
:10582000222C224944223A222573222C2256223A43
:105830007B222573223A222566227D7D0A00000004
:105840007B224D223A22757064617465222C2249B4
:1058500044223A222573222C2256223A7B22257397
:10586000223A22252E3266222C222573223A222524
:105870002E3266227D7D0A006E00002010B586B0B3
:1058800004460121480401F0F2F80121042001F04E
:10589000E1F818208DF817000420ADF8140003205B
:1058A0008DF8160005A97C4800F018FE04208DF83C
:1058B00017000820ADF8140003208DF8160005A984
:1058C000754800F00BFE00940020ADF80C000C2091
:1058D000ADF80A000020ADF80800ADF80600ADF8FC
:1058E000040069466D4801F05CF926208DF810002F
:1058F00003208DF811008DF8120001208DF813009F
:1059000004A800F01CFA012240F22551634801F07E
:10591000E0F90121614801F0D0F906B010BD10B5E1
:1059200040F225515D4801F0B9FA00284BD05B48A0
:1059300001F034FA5A49087008460078AA2802D1C2
:1059400080205849087057480078802809D1544869
:105950000178554802780078401C534B1870534822
:10596000815451480078072801D1012000E000202F
:105970004E498979FF2901D1012100E00021084029
:10598000E0B100204849087046490870474840780F
:105990004649897808444549C97808444349097902
:1059A0000844C4B241484079A04207D13F488078BA
:1059B0003E49497800EB01203D49088040F22551DD
:1059C000364801F095FA10BD10B504460FE0217875
:1059D000324801F0DFF900BF4021304801F048FAB9
:1059E0000028F9D040212D4801F04FFA641C20789E
:1059F0000028ECD110BD10B504462146274801F01F
:105A0000C9F900BF4021254801F032FA0028F9D039
:105A10004021224801F039FA10BD70B50546002436
:105A20007E20FFF7E8FF00BF05E02249085DFFF791
:105A3000E2FF601CC4B2AC42F7DBEF20FFF7DBFFF4
:105A400070BD30B502460B460021002004E0145C16
:105A50000C44A1B2441CE0B29842F8DB4C42A1B223
:105A60000C1214541518697030BD70B506460D46F9
:105A70001446FF200F4908700620487008468670BB
:105A8000C570201208714C7106210A48FFF7D9FF32
:105A90000820FFF7C2FF70BD00080140004400402D
:105AA0003A0000203B0000203C0000203000002095
:105AB000380000208601002010B56FF0040000F0CF
:105AC00088F92E4800682E49B0FBF1F02D49087086
:105AD0000846007800EB4001C1EBC0104FF6FF71A3
